{
  "_format": "hh-sol-artifact-1",
  "contractName": "MAW",
  "sourceName": "contracts/MAW.sol",
  "abi": [
    {
      "inputs": [],
      "stateMutability": "nonpayable",
      "type": "constructor"
    },
    {
      "anonymous": false,
      "inputs": [
        {
          "indexed": true,
          "internalType": "address",
          "name": "attacker",
          "type": "address"
        },
        {
          "indexed": true,
          "internalType": "address",
          "name": "victim",
          "type": "address"
        }
      ],
      "name": "PlayerAttacked",
      "type": "event"
    },
    {
      "anonymous": false,
      "inputs": [
        {
          "indexed": true,
          "internalType": "address",
          "name": "player",
          "type": "address"
        },
        {
          "indexed": true,
          "internalType": "uint256",
          "name": "x",
          "type": "uint256"
        },
        {
          "indexed": true,
          "internalType": "uint256",
          "name": "y",
          "type": "uint256"
        },
        {
          "indexed": false,
          "internalType": "uint8",
          "name": "dir",
          "type": "uint8"
        }
      ],
      "name": "PlayerJoined",
      "type": "event"
    },
    {
      "anonymous": false,
      "inputs": [
        {
          "indexed": true,
          "internalType": "address",
          "name": "player",
          "type": "address"
        },
        {
          "indexed": true,
          "internalType": "uint256",
          "name": "x",
          "type": "uint256"
        },
        {
          "indexed": true,
          "internalType": "uint256",
          "name": "y",
          "type": "uint256"
        },
        {
          "indexed": false,
          "internalType": "uint8",
          "name": "dir",
          "type": "uint8"
        }
      ],
      "name": "PlayerMoved",
      "type": "event"
    },
    {
      "inputs": [
        {
          "internalType": "address",
          "name": "player",
          "type": "address"
        }
      ],
      "name": "getPlayer",
      "outputs": [
        {
          "internalType": "uint256",
          "name": "",
          "type": "uint256"
        },
        {
          "internalType": "uint256",
          "name": "",
          "type": "uint256"
        },
        {
          "internalType": "uint8",
          "name": "",
          "type": "uint8"
        },
        {
          "internalType": "bool",
          "name": "",
          "type": "bool"
        }
      ],
      "stateMutability": "view",
      "type": "function"
    },
    {
      "inputs": [
        {
          "internalType": "uint8",
          "name": "x",
          "type": "uint8"
        },
        {
          "internalType": "uint8",
          "name": "y",
          "type": "uint8"
        },
        {
          "internalType": "uint8",
          "name": "dir",
          "type": "uint8"
        }
      ],
      "name": "join",
      "outputs": [],
      "stateMutability": "nonpayable",
      "type": "function"
    },
    {
      "inputs": [
        {
          "internalType": "uint8",
          "name": "dir",
          "type": "uint8"
        }
      ],
      "name": "move",
      "outputs": [],
      "stateMutability": "nonpayable",
      "type": "function"
    },
    {
      "inputs": [
        {
          "internalType": "address",
          "name": "",
          "type": "address"
        }
      ],
      "name": "players",
      "outputs": [
        {
          "internalType": "uint256",
          "name": "posX",
          "type": "uint256"
        },
        {
          "internalType": "uint256",
          "name": "posY",
          "type": "uint256"
        },
        {
          "internalType": "uint8",
          "name": "direction",
          "type": "uint8"
        },
        {
          "internalType": "bool",
          "name": "isAlive",
          "type": "bool"
        }
      ],
      "stateMutability": "view",
      "type": "function"
    },
    {
      "inputs": [
        {
          "internalType": "address",
          "name": "target",
          "type": "address"
        }
      ],
      "name": "whap",
      "outputs": [],
      "stateMutability": "nonpayable",
      "type": "function"
    }
  ],
  "bytecode": "0x60806040527fffffffffffffffffffffffffffffffffffffffffffffffffffffffffffffffff60005534801561003457600080fd5b50610c7f806100446000396000f3fe608060405234801561001057600080fd5b50600436106100575760003560e01c8063076b833c1461005c57806325781529146100785780635c12cd4b1461009457806370e87aaf146100c7578063e2eb41ff146100e3575b600080fd5b61007660048036038101906100719190610921565b610116565b005b610092600480360381019061008d91906109d2565b6102ef565b005b6100ae60048036038101906100a991906109d2565b610598565b6040516100be9493929190610a42565b60405180910390f35b6100e160048036038101906100dc9190610a87565b61065c565b005b6100fd60048036038101906100f891906109d2565b610877565b60405161010d9493929190610a42565b60405180910390f35b600160003373ffffffffffffffffffffffffffffffffffffffff1673ffffffffffffffffffffffffffffffffffffffff16815260200190815260200160002060020160019054906101000a900460ff161561017057600080fd5b6000608060026000546101839190610b12565b61018d9190610b43565b905060008460ff16826101a09190610b77565b905060008460ff16836101b39190610b77565b905060006004856101c49190610bab565b9050600060405180608001604052808581526020018481526020018360ff16815260200160011515815250905080600160003373ffffffffffffffffffffffffffffffffffffffff1673ffffffffffffffffffffffffffffffffffffffff168152602001908152602001600020600082015181600001556020820151816001015560408201518160020160006101000a81548160ff021916908360ff16021790555060608201518160020160016101000a81548160ff021916908315150217905550905050806020015181600001513373ffffffffffffffffffffffffffffffffffffffff167f2ee6e9beeedd0442f43872c60e1ed9d3f4f384141d42c00c3e8b2e20f025e24c84604001516040516102dd9190610bdc565b60405180910390a45050505050505050565b6000600160003373ffffffffffffffffffffffffffffffffffffffff1673ffffffffffffffffffffffffffffffffffffffff16815260200190815260200160002090508060020160019054906101000a900460ff1661034d57600080fd5b6000600160008473ffffffffffffffffffffffffffffffffffffffff1673ffffffffffffffffffffffffffffffffffffffff16815260200190815260200160002090508060020160019054906101000a900460ff166103ab57600080fd5b600060016103cb836001015485600101546103c69190610b43565b6108c1565b13159050600060016103ef846000015486600001546103ea9190610b43565b6108c1565b13159050600082806103fe5750815b90508061040a57600080fd5b6000808660020160009054906101000a900460ff1660ff16148015610443575060028560020160009054906101000a900460ff1660ff16145b90508080610485575060028660020160009054906101000a900460ff1660ff16148015610484575060008560020160009054906101000a900460ff1660ff16145b5b905080806104c8575060018660020160009054906101000a900460ff1660ff161480156104c7575060038560020160009054906101000a900460ff1660ff1610155b5b9050808061050b575060038660020160009054906101000a900460ff1660ff161015801561050a575060018560020160009054906101000a900460ff1660ff16145b5b9050801561051857600080fd5b60008560020160016101000a81548160ff0219169083151502179055508673ffffffffffffffffffffffffffffffffffffffff163373ffffffffffffffffffffffffffffffffffffffff167f4f11ec00c3efd9db10dc0b2bea38a650da95a6d73ede9b7312f41df861f8836f60405160405180910390a350505050505050565b6000806000806000600160008773ffffffffffffffffffffffffffffffffffffffff1673ffffffffffffffffffffffffffffffffffffffff16815260200190815260200160002060405180608001604052908160008201548152602001600182015481526020016002820160009054906101000a900460ff1660ff1660ff1681526020016002820160019054906101000a900460ff161515151581525050905080600001518160200151826040015183606001519450945094509450509193509193565b6000600160003373ffffffffffffffffffffffffffffffffffffffff1673ffffffffffffffffffffffffffffffffffffffff16815260200190815260200160002090508060020160019054906101000a900460ff166106ba57600080fd5b60008260ff160361070a5760018160010160008282546106da9190610b77565b9250508190555060026000546106f09190610b43565b81600101541061070557600281600101819055505b6107ed565b60018260ff160361075a57600181600001600082825461072a9190610b77565b9250508190555060026000546107409190610b43565b81600001541061075557600281600001819055505b6107ec565b60028260ff16036107aa57600181600101600082825461077a9190610b43565b9250508190555060028160010154116107a557600260005461079c9190610b43565b81600101819055505b6107eb565b60018160000160008282546107bf9190610b43565b9250508190555060028160000154116107ea5760026000546107e19190610b43565b81600001819055505b5b5b5b818160020160006101000a81548160ff021916908360ff160217905550806001015481600001543373ffffffffffffffffffffffffffffffffffffffff167fcadba2751cdeb795a8d05b743de544514f78b24113a5d9db2c79568be31cd5a58460020160009054906101000a900460ff1660405161086b9190610bdc565b60405180910390a45050565b60016020528060005260406000206000915090508060000154908060010154908060020160009054906101000a900460ff16908060020160019054906101000a900460ff16905084565b6000808212156108da57816108d590610c01565b6108dc565b815b9050919050565b600080fd5b600060ff82169050919050565b6108fe816108e8565b811461090957600080fd5b50565b60008135905061091b816108f5565b92915050565b60008060006060848603121561093a576109396108e3565b5b60006109488682870161090c565b93505060206109598682870161090c565b925050604061096a8682870161090c565b9150509250925092565b600073ffffffffffffffffffffffffffffffffffffffff82169050919050565b600061099f82610974565b9050919050565b6109af81610994565b81146109ba57600080fd5b50565b6000813590506109cc816109a6565b92915050565b6000602082840312156109e8576109e76108e3565b5b60006109f6848285016109bd565b91505092915050565b6000819050919050565b610a12816109ff565b82525050565b610a21816108e8565b82525050565b60008115159050919050565b610a3c81610a27565b82525050565b6000608082019050610a576000830187610a09565b610a646020830186610a09565b610a716040830185610a18565b610a7e6060830184610a33565b95945050505050565b600060208284031215610a9d57610a9c6108e3565b5b6000610aab8482850161090c565b91505092915050565b7f4e487b7100000000000000000000000000000000000000000000000000000000600052601260045260246000fd5b7f4e487b7100000000000000000000000000000000000000000000000000000000600052601160045260246000fd5b6000610b1d826109ff565b9150610b28836109ff565b925082610b3857610b37610ab4565b5b828204905092915050565b6000610b4e826109ff565b9150610b59836109ff565b9250828203905081811115610b7157610b70610ae3565b5b92915050565b6000610b82826109ff565b9150610b8d836109ff565b9250828201905080821115610ba557610ba4610ae3565b5b92915050565b6000610bb6826108e8565b9150610bc1836108e8565b925082610bd157610bd0610ab4565b5b828206905092915050565b6000602082019050610bf16000830184610a18565b92915050565b6000819050919050565b6000610c0c82610bf7565b91507f80000000000000000000000000000000000000000000000000000000000000008203610c3e57610c3d610ae3565b5b81600003905091905056fea26469706673582212204a7dbedb364217971707ae1c3191aa9758f1ae28c4c7c74e72715f678624487d64736f6c63430008110033",
  "linkReferences": {},
  "deployedLinkReferences": {}
}