{
  "_format": "hh-sol-artifact-1",
  "contractName": "MAW",
  "sourceName": "contracts/MAW.sol",
  "abi": [
    {
      "inputs": [],
      "stateMutability": "nonpayable",
      "type": "constructor"
    },
    {
      "anonymous": false,
      "inputs": [
        {
          "indexed": true,
          "internalType": "address",
          "name": "attacker",
          "type": "address"
        },
        {
          "indexed": true,
          "internalType": "address",
          "name": "victim",
          "type": "address"
        }
      ],
      "name": "PlayerAttacked",
      "type": "event"
    },
    {
      "anonymous": false,
      "inputs": [
        {
          "indexed": true,
          "internalType": "address",
          "name": "player",
          "type": "address"
        },
        {
          "indexed": true,
          "internalType": "int256",
          "name": "x",
          "type": "int256"
        },
        {
          "indexed": true,
          "internalType": "int256",
          "name": "y",
          "type": "int256"
        },
        {
          "indexed": false,
          "internalType": "uint8",
          "name": "dir",
          "type": "uint8"
        }
      ],
      "name": "PlayerJoined",
      "type": "event"
    },
    {
      "anonymous": false,
      "inputs": [
        {
          "indexed": true,
          "internalType": "address",
          "name": "player",
          "type": "address"
        },
        {
          "indexed": true,
          "internalType": "int256",
          "name": "x",
          "type": "int256"
        },
        {
          "indexed": true,
          "internalType": "int256",
          "name": "y",
          "type": "int256"
        },
        {
          "indexed": false,
          "internalType": "uint8",
          "name": "dir",
          "type": "uint8"
        }
      ],
      "name": "PlayerMoved",
      "type": "event"
    },
    {
      "inputs": [
        {
          "internalType": "address",
          "name": "player",
          "type": "address"
        }
      ],
      "name": "getPlayer",
      "outputs": [
        {
          "internalType": "int256",
          "name": "",
          "type": "int256"
        },
        {
          "internalType": "int256",
          "name": "",
          "type": "int256"
        },
        {
          "internalType": "uint8",
          "name": "",
          "type": "uint8"
        },
        {
          "internalType": "bool",
          "name": "",
          "type": "bool"
        }
      ],
      "stateMutability": "view",
      "type": "function"
    },
    {
      "inputs": [
        {
          "internalType": "int8",
          "name": "x",
          "type": "int8"
        },
        {
          "internalType": "int8",
          "name": "y",
          "type": "int8"
        },
        {
          "internalType": "uint8",
          "name": "dir",
          "type": "uint8"
        }
      ],
      "name": "join",
      "outputs": [],
      "stateMutability": "nonpayable",
      "type": "function"
    },
    {
      "inputs": [
        {
          "internalType": "uint8",
          "name": "dir",
          "type": "uint8"
        }
      ],
      "name": "move",
      "outputs": [],
      "stateMutability": "nonpayable",
      "type": "function"
    },
    {
      "inputs": [
        {
          "internalType": "address",
          "name": "",
          "type": "address"
        }
      ],
      "name": "players",
      "outputs": [
        {
          "internalType": "int256",
          "name": "posX",
          "type": "int256"
        },
        {
          "internalType": "int256",
          "name": "posY",
          "type": "int256"
        },
        {
          "internalType": "uint8",
          "name": "direction",
          "type": "uint8"
        },
        {
          "internalType": "bool",
          "name": "isAlive",
          "type": "bool"
        }
      ],
      "stateMutability": "view",
      "type": "function"
    },
    {
      "inputs": [
        {
          "internalType": "address",
          "name": "target",
          "type": "address"
        }
      ],
      "name": "whap",
      "outputs": [],
      "stateMutability": "nonpayable",
      "type": "function"
    }
  ],
  "bytecode": "0x60806040527f7fffffffffffffffffffffffffffffffffffffffffffffffffffffffffffffff6000557f800000000000000000000000000000000000000000000000000000000000000060015534801561005857600080fd5b50610cac806100686000396000f3fe608060405234801561001057600080fd5b50600436106100575760003560e01c8063257815291461005c5780635c12cd4b1461007857806370e87aaf146100ab5780637ccaeecf146100c7578063e2eb41ff146100e3575b600080fd5b61007660048036038101906100719190610956565b610116565b005b610092600480360381019061008d9190610956565b6103bf565b6040516100a294939291906109d3565b60405180910390f35b6100c560048036038101906100c09190610a44565b610483565b005b6100e160048036038101906100dc9190610aaa565b6106e4565b005b6100fd60048036038101906100f89190610956565b610887565b60405161010d94939291906109d3565b60405180910390f35b6000600260003373ffffffffffffffffffffffffffffffffffffffff1673ffffffffffffffffffffffffffffffffffffffff16815260200190815260200160002090508060020160019054906101000a900460ff1661017457600080fd5b6000600260008473ffffffffffffffffffffffffffffffffffffffff1673ffffffffffffffffffffffffffffffffffffffff16815260200190815260200160002090508060020160019054906101000a900460ff166101d257600080fd5b600060016101f2836001015485600101546101ed9190610b2c565b6108d1565b1315905060006001610216846000015486600001546102119190610b2c565b6108d1565b13159050600082806102255750815b90508061023157600080fd5b6000808660020160009054906101000a900460ff1660ff1614801561026a575060028560020160009054906101000a900460ff1660ff16145b905080806102ac575060028660020160009054906101000a900460ff1660ff161480156102ab575060008560020160009054906101000a900460ff1660ff16145b5b905080806102ef575060018660020160009054906101000a900460ff1660ff161480156102ee575060038560020160009054906101000a900460ff1660ff1610155b5b90508080610332575060038660020160009054906101000a900460ff1660ff1610158015610331575060018560020160009054906101000a900460ff1660ff16145b5b9050801561033f57600080fd5b60008560020160016101000a81548160ff0219169083151502179055508673ffffffffffffffffffffffffffffffffffffffff163373ffffffffffffffffffffffffffffffffffffffff167f4f11ec00c3efd9db10dc0b2bea38a650da95a6d73ede9b7312f41df861f8836f60405160405180910390a350505050505050565b6000806000806000600260008773ffffffffffffffffffffffffffffffffffffffff1673ffffffffffffffffffffffffffffffffffffffff16815260200190815260200160002060405180608001604052908160008201548152602001600182015481526020016002820160009054906101000a900460ff1660ff1660ff1681526020016002820160019054906101000a900460ff161515151581525050905080600001518160200151826040015183606001519450945094509450509193509193565b6000600260003373ffffffffffffffffffffffffffffffffffffffff1673ffffffffffffffffffffffffffffffffffffffff16815260200190815260200160002090508060020160019054906101000a900460ff166104e157600080fd5b60006004836104f09190610b9e565b905060008160ff160361054f5760018260010160008282546105129190610bcf565b9250508190555060026000546105289190610b2c565b82600101541261054a5760026001546105419190610bcf565b82600101819055505b610659565b60018160ff16036105ac57600182600001600082825461056f9190610bcf565b9250508190555060026000546105859190610b2c565b8260000154126105a757600260015461059e9190610bcf565b82600001819055505b610658565b60028160ff16036106095760018260010160008282546105cc9190610b2c565b9250508190555060026001546105e29190610bcf565b8260010154136106045760026000546105fb9190610b2c565b82600101819055505b610657565b600182600001600082825461061e9190610b2c565b9250508190555060026001546106349190610bcf565b82600001541361065657600260005461064d9190610b2c565b82600001819055505b5b5b5b808260020160006101000a81548160ff021916908360ff160217905550816001015482600001543373ffffffffffffffffffffffffffffffffffffffff167f4cc59890976d181dc54fc5424a1590aa2973185e7379a4df7f41d8c025652b9f8560020160009054906101000a900460ff166040516106d79190610c13565b60405180910390a4505050565b600260003373ffffffffffffffffffffffffffffffffffffffff1673ffffffffffffffffffffffffffffffffffffffff16815260200190815260200160002060020160019054906101000a900460ff161561073e57600080fd5b60008360000b905060008360000b9050600060048461075d9190610b9e565b9050600060405180608001604052808581526020018481526020018360ff16815260200160011515815250905080600260003373ffffffffffffffffffffffffffffffffffffffff1673ffffffffffffffffffffffffffffffffffffffff168152602001908152602001600020600082015181600001556020820151816001015560408201518160020160006101000a81548160ff021916908360ff16021790555060608201518160020160016101000a81548160ff021916908315150217905550905050806020015181600001513373ffffffffffffffffffffffffffffffffffffffff167f322372da05b643e24d64e7dd5226c8ce9656d6b48981f16cd6f6effb6ac7ca6984604001516040516108769190610c13565b60405180910390a450505050505050565b60026020528060005260406000206000915090508060000154908060010154908060020160009054906101000a900460ff16908060020160019054906101000a900460ff16905084565b6000808212156108ea57816108e590610c2e565b6108ec565b815b9050919050565b600080fd5b600073ffffffffffffffffffffffffffffffffffffffff82169050919050565b6000610923826108f8565b9050919050565b61093381610918565b811461093e57600080fd5b50565b6000813590506109508161092a565b92915050565b60006020828403121561096c5761096b6108f3565b5b600061097a84828501610941565b91505092915050565b6000819050919050565b61099681610983565b82525050565b600060ff82169050919050565b6109b28161099c565b82525050565b60008115159050919050565b6109cd816109b8565b82525050565b60006080820190506109e8600083018761098d565b6109f5602083018661098d565b610a0260408301856109a9565b610a0f60608301846109c4565b95945050505050565b610a218161099c565b8114610a2c57600080fd5b50565b600081359050610a3e81610a18565b92915050565b600060208284031215610a5a57610a596108f3565b5b6000610a6884828501610a2f565b91505092915050565b60008160000b9050919050565b610a8781610a71565b8114610a9257600080fd5b50565b600081359050610aa481610a7e565b92915050565b600080600060608486031215610ac357610ac26108f3565b5b6000610ad186828701610a95565b9350506020610ae286828701610a95565b9250506040610af386828701610a2f565b9150509250925092565b7f4e487b7100000000000000000000000000000000000000000000000000000000600052601160045260246000fd5b6000610b3782610983565b9150610b4283610983565b9250828203905081811260008412168282136000851215161715610b6957610b68610afd565b5b92915050565b7f4e487b7100000000000000000000000000000000000000000000000000000000600052601260045260246000fd5b6000610ba98261099c565b9150610bb48361099c565b925082610bc457610bc3610b6f565b5b828206905092915050565b6000610bda82610983565b9150610be583610983565b925082820190508281121560008312168382126000841215161715610c0d57610c0c610afd565b5b92915050565b6000602082019050610c2860008301846109a9565b92915050565b6000610c3982610983565b91507f80000000000000000000000000000000000000000000000000000000000000008203610c6b57610c6a610afd565b5b81600003905091905056fea2646970667358221220f00df3b110f1868e7023aff66da35480512920288a26758a2b11dacc573c6cb664736f6c63430008110033",
  "linkReferences": {},
  "deployedLinkReferences": {}
}