{
  "_format": "hh-sol-artifact-1",
  "contractName": "MAW",
  "sourceName": "contracts/MAW.sol",
  "abi": [
    {
      "inputs": [],
      "stateMutability": "nonpayable",
      "type": "constructor"
    },
    {
      "anonymous": false,
      "inputs": [
        {
          "indexed": true,
          "internalType": "address",
          "name": "attacker",
          "type": "address"
        },
        {
          "indexed": true,
          "internalType": "address",
          "name": "victim",
          "type": "address"
        }
      ],
      "name": "PlayerAttacked",
      "type": "event"
    },
    {
      "anonymous": false,
      "inputs": [
        {
          "indexed": true,
          "internalType": "address",
          "name": "player",
          "type": "address"
        },
        {
          "indexed": true,
          "internalType": "int256",
          "name": "x",
          "type": "int256"
        },
        {
          "indexed": true,
          "internalType": "int256",
          "name": "y",
          "type": "int256"
        },
        {
          "indexed": false,
          "internalType": "uint8",
          "name": "dir",
          "type": "uint8"
        }
      ],
      "name": "PlayerJoined",
      "type": "event"
    },
    {
      "anonymous": false,
      "inputs": [
        {
          "indexed": true,
          "internalType": "address",
          "name": "player",
          "type": "address"
        },
        {
          "indexed": true,
          "internalType": "int256",
          "name": "x",
          "type": "int256"
        },
        {
          "indexed": true,
          "internalType": "int256",
          "name": "y",
          "type": "int256"
        },
        {
          "indexed": false,
          "internalType": "uint8",
          "name": "dir",
          "type": "uint8"
        }
      ],
      "name": "PlayerMoved",
      "type": "event"
    },
    {
      "inputs": [
        {
          "internalType": "address",
          "name": "player",
          "type": "address"
        }
      ],
      "name": "getPlayer",
      "outputs": [
        {
          "internalType": "int256",
          "name": "",
          "type": "int256"
        },
        {
          "internalType": "int256",
          "name": "",
          "type": "int256"
        },
        {
          "internalType": "uint8",
          "name": "",
          "type": "uint8"
        },
        {
          "internalType": "bool",
          "name": "",
          "type": "bool"
        }
      ],
      "stateMutability": "view",
      "type": "function"
    },
    {
      "inputs": [
        {
          "internalType": "int8",
          "name": "x",
          "type": "int8"
        },
        {
          "internalType": "int8",
          "name": "y",
          "type": "int8"
        },
        {
          "internalType": "uint8",
          "name": "dir",
          "type": "uint8"
        }
      ],
      "name": "join",
      "outputs": [],
      "stateMutability": "nonpayable",
      "type": "function"
    },
    {
      "inputs": [
        {
          "internalType": "uint8",
          "name": "dir",
          "type": "uint8"
        }
      ],
      "name": "move",
      "outputs": [],
      "stateMutability": "nonpayable",
      "type": "function"
    },
    {
      "inputs": [
        {
          "internalType": "address",
          "name": "",
          "type": "address"
        }
      ],
      "name": "players",
      "outputs": [
        {
          "internalType": "int256",
          "name": "posX",
          "type": "int256"
        },
        {
          "internalType": "int256",
          "name": "posY",
          "type": "int256"
        },
        {
          "internalType": "uint8",
          "name": "direction",
          "type": "uint8"
        },
        {
          "internalType": "bool",
          "name": "isAlive",
          "type": "bool"
        }
      ],
      "stateMutability": "view",
      "type": "function"
    },
    {
      "inputs": [
        {
          "internalType": "address",
          "name": "target",
          "type": "address"
        }
      ],
      "name": "whap",
      "outputs": [],
      "stateMutability": "nonpayable",
      "type": "function"
    }
  ],
  "bytecode": "0x60806040527f7fffffffffffffffffffffffffffffffffffffffffffffffffffffffffffffff6000557f800000000000000000000000000000000000000000000000000000000000000060015534801561005857600080fd5b50610ddc806100686000396000f3fe608060405234801561001057600080fd5b50600436106100575760003560e01c8063257815291461005c5780635c12cd4b1461007857806370e87aaf146100ab5780637ccaeecf146100c7578063e2eb41ff146100e3575b600080fd5b6100766004803603810190610071919061089b565b610116565b005b610092600480360381019061008d919061089b565b6102ba565b6040516100a29493929190610918565b60405180910390f35b6100c560048036038101906100c09190610989565b61037e565b005b6100e160048036038101906100dc91906109ef565b610615565b005b6100fd60048036038101906100f8919061089b565b6107ee565b60405161010d9493929190610918565b60405180910390f35b6000600260003373ffffffffffffffffffffffffffffffffffffffff1673ffffffffffffffffffffffffffffffffffffffff16815260200190815260200160002090508060020160019054906101000a900460ff166101aa576040517f08c379a00000000000000000000000000000000000000000000000000000000081526004016101a190610ac5565b60405180910390fd5b6000600260008473ffffffffffffffffffffffffffffffffffffffff1673ffffffffffffffffffffffffffffffffffffffff16815260200190815260200160002090508060020160019054906101000a900460ff1661023e576040517f08c379a000000000000000000000000000000000000000000000000000000000815260040161023590610b57565b60405180910390fd5b60008160020160016101000a81548160ff0219169083151502179055508273ffffffffffffffffffffffffffffffffffffffff163373ffffffffffffffffffffffffffffffffffffffff167f4f11ec00c3efd9db10dc0b2bea38a650da95a6d73ede9b7312f41df861f8836f60405160405180910390a3505050565b6000806000806000600260008773ffffffffffffffffffffffffffffffffffffffff1673ffffffffffffffffffffffffffffffffffffffff16815260200190815260200160002060405180608001604052908160008201548152602001600182015481526020016002820160009054906101000a900460ff1660ff1660ff1681526020016002820160019054906101000a900460ff161515151581525050905080600001518160200151826040015183606001519450945094509450509193509193565b6000600260003373ffffffffffffffffffffffffffffffffffffffff1673ffffffffffffffffffffffffffffffffffffffff16815260200190815260200160002090508060020160019054906101000a900460ff16610412576040517f08c379a000000000000000000000000000000000000000000000000000000000815260040161040990610be9565b60405180910390fd5b60006004836104219190610c38565b905060008160ff16036104805760018260010160008282546104439190610c98565b9250508190555060026000546104599190610cdc565b82600101541261047b5760026001546104729190610c98565b82600101819055505b61058a565b60018160ff16036104dd5760018260000160008282546104a09190610c98565b9250508190555060026000546104b69190610cdc565b8260000154126104d85760026001546104cf9190610c98565b82600001819055505b610589565b60028160ff160361053a5760018260010160008282546104fd9190610cdc565b9250508190555060026001546105139190610c98565b82600101541361053557600260005461052c9190610cdc565b82600101819055505b610588565b600182600001600082825461054f9190610cdc565b9250508190555060026001546105659190610c98565b82600001541361058757600260005461057e9190610cdc565b82600001819055505b5b5b5b808260020160006101000a81548160ff021916908360ff160217905550816001015482600001543373ffffffffffffffffffffffffffffffffffffffff167f4cc59890976d181dc54fc5424a1590aa2973185e7379a4df7f41d8c025652b9f8560020160009054906101000a900460ff166040516106089190610d1f565b60405180910390a4505050565b600260003373ffffffffffffffffffffffffffffffffffffffff1673ffffffffffffffffffffffffffffffffffffffff16815260200190815260200160002060020160019054906101000a900460ff16156106a5576040517f08c379a000000000000000000000000000000000000000000000000000000000815260040161069c90610d86565b60405180910390fd5b60008360000b905060008360000b905060006004846106c49190610c38565b9050600060405180608001604052808581526020018481526020018360ff16815260200160011515815250905080600260003373ffffffffffffffffffffffffffffffffffffffff1673ffffffffffffffffffffffffffffffffffffffff168152602001908152602001600020600082015181600001556020820151816001015560408201518160020160006101000a81548160ff021916908360ff16021790555060608201518160020160016101000a81548160ff021916908315150217905550905050806020015181600001513373ffffffffffffffffffffffffffffffffffffffff167f322372da05b643e24d64e7dd5226c8ce9656d6b48981f16cd6f6effb6ac7ca6984604001516040516107dd9190610d1f565b60405180910390a450505050505050565b60026020528060005260406000206000915090508060000154908060010154908060020160009054906101000a900460ff16908060020160019054906101000a900460ff16905084565b600080fd5b600073ffffffffffffffffffffffffffffffffffffffff82169050919050565b60006108688261083d565b9050919050565b6108788161085d565b811461088357600080fd5b50565b6000813590506108958161086f565b92915050565b6000602082840312156108b1576108b0610838565b5b60006108bf84828501610886565b91505092915050565b6000819050919050565b6108db816108c8565b82525050565b600060ff82169050919050565b6108f7816108e1565b82525050565b60008115159050919050565b610912816108fd565b82525050565b600060808201905061092d60008301876108d2565b61093a60208301866108d2565b61094760408301856108ee565b6109546060830184610909565b95945050505050565b610966816108e1565b811461097157600080fd5b50565b6000813590506109838161095d565b92915050565b60006020828403121561099f5761099e610838565b5b60006109ad84828501610974565b91505092915050565b60008160000b9050919050565b6109cc816109b6565b81146109d757600080fd5b50565b6000813590506109e9816109c3565b92915050565b600080600060608486031215610a0857610a07610838565b5b6000610a16868287016109da565b9350506020610a27868287016109da565b9250506040610a3886828701610974565b9150509250925092565b600082825260208201905092915050565b7f41747461636b657220646f6573206e6f7420657869737420696e20746865207760008201527f6f726c642e000000000000000000000000000000000000000000000000000000602082015250565b6000610aaf602583610a42565b9150610aba82610a53565b604082019050919050565b60006020820190508181036000830152610ade81610aa2565b9050919050565b7f56696374696d20646f6573206e6f7420657869737420696e2074686520776f7260008201527f6c642e0000000000000000000000000000000000000000000000000000000000602082015250565b6000610b41602383610a42565b9150610b4c82610ae5565b604082019050919050565b60006020820190508181036000830152610b7081610b34565b9050919050565b7f506c6179657220646f6573206e6f7420657869737420696e2074686520776f7260008201527f6c642e0000000000000000000000000000000000000000000000000000000000602082015250565b6000610bd3602383610a42565b9150610bde82610b77565b604082019050919050565b60006020820190508181036000830152610c0281610bc6565b9050919050565b7f4e487b7100000000000000000000000000000000000000000000000000000000600052601260045260246000fd5b6000610c43826108e1565b9150610c4e836108e1565b925082610c5e57610c5d610c09565b5b828206905092915050565b7f4e487b7100000000000000000000000000000000000000000000000000000000600052601160045260246000fd5b6000610ca3826108c8565b9150610cae836108c8565b925082820190508281121560008312168382126000841215161715610cd657610cd5610c69565b5b92915050565b6000610ce7826108c8565b9150610cf2836108c8565b9250828203905081811260008412168282136000851215161715610d1957610d18610c69565b5b92915050565b6000602082019050610d3460008301846108ee565b92915050565b7f506c6179657220616c72656164792065786973747320696e20776f726c642e00600082015250565b6000610d70601f83610a42565b9150610d7b82610d3a565b602082019050919050565b60006020820190508181036000830152610d9f81610d63565b905091905056fea26469706673582212208c0eaa1c14895e747c1a6ddeb3426961deb270c6ef4e5ebe988ee7beb88723c164736f6c63430008110033",
  "linkReferences": {},
  "deployedLinkReferences": {}
}